{
  "_format": "hh-sol-artifact-1",
  "contractName": "MatchEscrow",
  "sourceName": "contracts/MatchEscrow.sol",
  "abi": [
    {
      "inputs": [],
      "stateMutability": "nonpayable",
      "type": "constructor"
    },
    {
      "anonymous": false,
      "inputs": [
        {
          "indexed": true,
          "internalType": "uint256",
          "name": "matchId",
          "type": "uint256"
        },
        {
          "indexed": true,
          "internalType": "address",
          "name": "challenger",
          "type": "address"
        }
      ],
      "name": "ClaimChallenged",
      "type": "event"
    },
    {
      "anonymous": false,
      "inputs": [
        {
          "indexed": true,
          "internalType": "uint256",
          "name": "matchId",
          "type": "uint256"
        },
        {
          "indexed": true,
          "internalType": "address",
          "name": "claimant",
          "type": "address"
        }
      ],
      "name": "ForfeitClaimOpened",
      "type": "event"
    },
    {
      "anonymous": false,
      "inputs": [
        {
          "indexed": true,
          "internalType": "uint256",
          "name": "matchId",
          "type": "uint256"
        }
      ],
      "name": "MatchCancelled",
      "type": "event"
    },
    {
      "anonymous": false,
      "inputs": [
        {
          "indexed": true,
          "internalType": "uint256",
          "name": "matchId",
          "type": "uint256"
        },
        {
          "indexed": true,
          "internalType": "address",
          "name": "creator",
          "type": "address"
        },
        {
          "indexed": false,
          "internalType": "uint256",
          "name": "stakeAmount",
          "type": "uint256"
        }
      ],
      "name": "MatchCreated",
      "type": "event"
    },
    {
      "anonymous": false,
      "inputs": [
        {
          "indexed": true,
          "internalType": "uint256",
          "name": "matchId",
          "type": "uint256"
        },
        {
          "indexed": true,
          "internalType": "address",
          "name": "opponent",
          "type": "address"
        }
      ],
      "name": "MatchJoined",
      "type": "event"
    },
    {
      "anonymous": false,
      "inputs": [
        {
          "indexed": true,
          "internalType": "uint256",
          "name": "matchId",
          "type": "uint256"
        },
        {
          "indexed": true,
          "internalType": "address",
          "name": "winner",
          "type": "address"
        },
        {
          "indexed": false,
          "internalType": "uint256",
          "name": "payout",
          "type": "uint256"
        }
      ],
      "name": "MatchSettled",
      "type": "event"
    },
    {
      "anonymous": false,
      "inputs": [
        {
          "indexed": true,
          "internalType": "uint256",
          "name": "matchId",
          "type": "uint256"
        },
        {
          "indexed": true,
          "internalType": "address",
          "name": "proposer",
          "type": "address"
        },
        {
          "indexed": true,
          "internalType": "address",
          "name": "winner",
          "type": "address"
        }
      ],
      "name": "ResultProposed",
      "type": "event"
    },
    {
      "inputs": [
        {
          "internalType": "uint256",
          "name": "matchId",
          "type": "uint256"
        }
      ],
      "name": "cancelOpenMatch",
      "outputs": [],
      "stateMutability": "nonpayable",
      "type": "function"
    },
    {
      "inputs": [
        {
          "internalType": "uint256",
          "name": "matchId",
          "type": "uint256"
        },
        {
          "internalType": "bytes32",
          "name": "newerCheckpointHash",
          "type": "bytes32"
        },
        {
          "internalType": "bytes",
          "name": "creatorSig",
          "type": "bytes"
        },
        {
          "internalType": "bytes",
          "name": "opponentSig",
          "type": "bytes"
        }
      ],
      "name": "challengeClaim",
      "outputs": [],
      "stateMutability": "nonpayable",
      "type": "function"
    },
    {
      "inputs": [
        {
          "internalType": "uint256",
          "name": "matchId",
          "type": "uint256"
        }
      ],
      "name": "claimPayout",
      "outputs": [],
      "stateMutability": "nonpayable",
      "type": "function"
    },
    {
      "inputs": [
        {
          "internalType": "uint256",
          "name": "",
          "type": "uint256"
        },
        {
          "internalType": "address",
          "name": "",
          "type": "address"
        }
      ],
      "name": "claimablePayouts",
      "outputs": [
        {
          "internalType": "uint256",
          "name": "",
          "type": "uint256"
        }
      ],
      "stateMutability": "view",
      "type": "function"
    },
    {
      "inputs": [
        {
          "internalType": "uint256",
          "name": "matchId",
          "type": "uint256"
        },
        {
          "internalType": "uint64",
          "name": "moveTimeout",
          "type": "uint64"
        },
        {
          "internalType": "uint64",
          "name": "disputeWindow",
          "type": "uint64"
        }
      ],
      "name": "createMatch",
      "outputs": [],
      "stateMutability": "payable",
      "type": "function"
    },
    {
      "inputs": [
        {
          "internalType": "uint256",
          "name": "matchId",
          "type": "uint256"
        }
      ],
      "name": "finalizeClaim",
      "outputs": [],
      "stateMutability": "nonpayable",
      "type": "function"
    },
    {
      "inputs": [
        {
          "internalType": "uint256",
          "name": "matchId",
          "type": "uint256"
        }
      ],
      "name": "joinMatch",
      "outputs": [],
      "stateMutability": "payable",
      "type": "function"
    },
    {
      "inputs": [
        {
          "internalType": "uint256",
          "name": "",
          "type": "uint256"
        }
      ],
      "name": "matches",
      "outputs": [
        {
          "internalType": "address",
          "name": "creator",
          "type": "address"
        },
        {
          "internalType": "address",
          "name": "opponent",
          "type": "address"
        },
        {
          "internalType": "uint256",
          "name": "stakeAmount",
          "type": "uint256"
        },
        {
          "internalType": "uint64",
          "name": "createdAt",
          "type": "uint64"
        },
        {
          "internalType": "uint64",
          "name": "startedAt",
          "type": "uint64"
        },
        {
          "internalType": "uint64",
          "name": "lastActionAt",
          "type": "uint64"
        },
        {
          "internalType": "uint64",
          "name": "claimOpenedAt",
          "type": "uint64"
        },
        {
          "internalType": "uint64",
          "name": "moveTimeout",
          "type": "uint64"
        },
        {
          "internalType": "uint64",
          "name": "disputeWindow",
          "type": "uint64"
        },
        {
          "internalType": "enum MatchEscrow.MatchStatus",
          "name": "status",
          "type": "uint8"
        },
        {
          "internalType": "address",
          "name": "winner",
          "type": "address"
        },
        {
          "internalType": "address",
          "name": "claimant",
          "type": "address"
        }
      ],
      "stateMutability": "view",
      "type": "function"
    },
    {
      "inputs": [
        {
          "internalType": "uint256",
          "name": "matchId",
          "type": "uint256"
        },
        {
          "internalType": "bytes32",
          "name": "checkpointHash",
          "type": "bytes32"
        },
        {
          "internalType": "bytes",
          "name": "claimantSig",
          "type": "bytes"
        },
        {
          "internalType": "bytes",
          "name": "counterpartySig",
          "type": "bytes"
        }
      ],
      "name": "openForfeitClaim",
      "outputs": [],
      "stateMutability": "nonpayable",
      "type": "function"
    },
    {
      "inputs": [],
      "name": "oracle",
      "outputs": [
        {
          "internalType": "address",
          "name": "",
          "type": "address"
        }
      ],
      "stateMutability": "view",
      "type": "function"
    },
    {
      "inputs": [],
      "name": "owner",
      "outputs": [
        {
          "internalType": "address",
          "name": "",
          "type": "address"
        }
      ],
      "stateMutability": "view",
      "type": "function"
    },
    {
      "inputs": [
        {
          "internalType": "uint256",
          "name": "matchId",
          "type": "uint256"
        },
        {
          "internalType": "address",
          "name": "winner",
          "type": "address"
        },
        {
          "internalType": "bytes32",
          "name": "checkpointHash",
          "type": "bytes32"
        },
        {
          "internalType": "bytes",
          "name": "creatorSig",
          "type": "bytes"
        },
        {
          "internalType": "bytes",
          "name": "opponentSig",
          "type": "bytes"
        }
      ],
      "name": "proposeResult",
      "outputs": [],
      "stateMutability": "nonpayable",
      "type": "function"
    },
    {
      "inputs": [
        {
          "internalType": "address",
          "name": "_oracle",
          "type": "address"
        }
      ],
      "name": "setOracle",
      "outputs": [],
      "stateMutability": "nonpayable",
      "type": "function"
    },
    {
      "inputs": [
        {
          "internalType": "uint256",
          "name": "matchId",
          "type": "uint256"
        },
        {
          "internalType": "address",
          "name": "winner",
          "type": "address"
        },
        {
          "internalType": "bytes32",
          "name": "checkpointHash",
          "type": "bytes32"
        },
        {
          "internalType": "bytes",
          "name": "oracleSig",
          "type": "bytes"
        }
      ],
      "name": "settleWithOracle",
      "outputs": [],
      "stateMutability": "nonpayable",
      "type": "function"
    },
    {
      "inputs": [
        {
          "internalType": "uint256",
          "name": "",
          "type": "uint256"
        },
        {
          "internalType": "bytes32",
          "name": "",
          "type": "bytes32"
        }
      ],
      "name": "usedCheckpoints",
      "outputs": [
        {
          "internalType": "bool",
          "name": "",
          "type": "bool"
        }
      ],
      "stateMutability": "view",
      "type": "function"
    }
  ],
  "bytecode": "0x608060405234801561001057600080fd5b5033600460006101000a81548173ffffffffffffffffffffffffffffffffffffffff021916908373ffffffffffffffffffffffffffffffffffffffff16021790555033600560006101000a81548173ffffffffffffffffffffffffffffffffffffffff021916908373ffffffffffffffffffffffffffffffffffffffff1602179055506148e4806100a26000396000f3fe6080604052600436106100e85760003560e01c80638a69614e1161008a578063aa63c61811610059578063aa63c618146102fb578063d991db7d14610317578063dd7ca0c214610340578063feb8c43814610369576100e8565b80638a69614e146102555780638da5cb5b1461027e578063988e7fc7146102a9578063a3b2b052146102d2576100e8565b80637a971114116100c65780637a971114146101af5780637adbf973146101d85780637dc0d1d014610201578063810cf3b01461022c576100e8565b8063320b698f146100ed57806344e58e301461012a5780634768d4ef14610167575b600080fd5b3480156100f957600080fd5b50610114600480360381019061010f91906130ce565b610385565b604051610121919061311d565b60405180910390f35b34801561013657600080fd5b50610151600480360381019061014c919061316e565b6103aa565b60405161015e91906131c9565b60405180910390f35b34801561017357600080fd5b5061018e600480360381019061018991906131e4565b6103d9565b6040516101a69c9b9a999897969594939291906132ba565b60405180910390f35b3480156101bb57600080fd5b506101d660048036038101906101d191906131e4565b61053e565b005b3480156101e457600080fd5b506101ff60048036038101906101fa9190613374565b610723565b005b34801561020d57600080fd5b50610216610866565b60405161022391906133a1565b60405180910390f35b34801561023857600080fd5b50610253600480360381019061024e9190613421565b61088c565b005b34801561026157600080fd5b5061027c600480360381019061027791906131e4565b610c35565b005b34801561028a57600080fd5b50610293610ef7565b6040516102a091906133a1565b60405180910390f35b3480156102b557600080fd5b506102d060048036038101906102cb91906131e4565b610f1d565b005b3480156102de57600080fd5b506102f960048036038101906102f491906134a9565b611143565b005b6103156004803603810190610310919061357c565b6116aa565b005b34801561032357600080fd5b5061033e600480360381019061033991906134a9565b611c2e565b005b34801561034c57600080fd5b50610367600480360381019061036291906135cf565b61210f565b005b610383600480360381019061037e91906131e4565b612605565b005b6002602052816000526040600020602052806000526040600020600091509150505481565b60016020528160005260406000206020528060005260406000206000915091509054906101000a900460ff1681565b60006020528060005260406000206000915090508060000160009054906101000a900473ffffffffffffffffffffffffffffffffffffffff16908060010160009054906101000a900473ffffffffffffffffffffffffffffffffffffffff16908060020154908060030160009054906101000a900467ffffffffffffffff16908060030160089054906101000a900467ffffffffffffffff16908060030160109054906101000a900467ffffffffffffffff16908060030160189054906101000a900467ffffffffffffffff16908060040160009054906101000a900467ffffffffffffffff16908060040160089054906101000a900467ffffffffffffffff16908060040160109054906101000a900460ff16908060050160009054906101000a900473ffffffffffffffffffffffffffffffffffffffff16908060060160009054906101000a900473ffffffffffffffffffffffffffffffffffffffff1690508c565b600080600083815260200190815260200160002090506003600681111561056857610567613243565b5b8160040160109054906101000a900460ff16600681111561058c5761058b613243565b5b146105cc576040517f08c379a00000000000000000000000000000000000000000000000000000000081526004016105c3906136e8565b60405180910390fd5b8060040160089054906101000a900467ffffffffffffffff1667ffffffffffffffff168160030160189054906101000a900467ffffffffffffffff1667ffffffffffffffff1661061c9190613737565b42101561065e576040517f08c379a0000000000000000000000000000000000000000000000000000000008152600401610655906137b7565b60405180910390fd5b600073ffffffffffffffffffffffffffffffffffffffff168160060160009054906101000a900473ffffffffffffffffffffffffffffffffffffffff1673ffffffffffffffffffffffffffffffffffffffff16036106f1576040517f08c379a00000000000000000000000000000000000000000000000000000000081526004016106e890613823565b60405180910390fd5b61071f828260060160009054906101000a900473ffffffffffffffffffffffffffffffffffffffff1661294f565b5050565b600460009054906101000a900473ffffffffffffffffffffffffffffffffffffffff1673ffffffffffffffffffffffffffffffffffffffff163373ffffffffffffffffffffffffffffffffffffffff16146107b3576040517f08c379a00000000000000000000000000000000000000000000000000000000081526004016107aa9061388f565b60405180910390fd5b600073ffffffffffffffffffffffffffffffffffffffff168173ffffffffffffffffffffffffffffffffffffffff1603610822576040517f08c379a0000000000000000000000000000000000000000000000000000000008152600401610819906138fb565b60405180910390fd5b80600560006101000a81548173ffffffffffffffffffffffffffffffffffffffff021916908373ffffffffffffffffffffffffffffffffffffffff16021790555050565b600560009054906101000a900473ffffffffffffffffffffffffffffffffffffffff1681565b60008060008781526020019081526020016000209050600260068111156108b6576108b5613243565b5b8160040160109054906101000a900460ff1660068111156108da576108d9613243565b5b148061091b5750600160068111156108f5576108f4613243565b5b8160040160109054906101000a900460ff16600681111561091957610918613243565b5b145b61095a576040517f08c379a000000000000000000000000000000000000000000000000000000000815260040161095190613967565b60405180910390fd5b8060000160009054906101000a900473ffffffffffffffffffffffffffffffffffffffff1673ffffffffffffffffffffffffffffffffffffffff168573ffffffffffffffffffffffffffffffffffffffff161480610a0757508060010160009054906101000a900473ffffffffffffffffffffffffffffffffffffffff1673ffffffffffffffffffffffffffffffffffffffff168573ffffffffffffffffffffffffffffffffffffffff16145b80610a3e5750600073ffffffffffffffffffffffffffffffffffffffff168573ffffffffffffffffffffffffffffffffffffffff16145b610a7d576040517f08c379a0000000000000000000000000000000000000000000000000000000008152600401610a74906139d3565b60405180910390fd5b60016000878152602001908152602001600020600085815260200190815260200160002060009054906101000a900460ff1615610aef576040517f08c379a0000000000000000000000000000000000000000000000000000000008152600401610ae690613a3f565b60405180910390fd5b6000610b4a7fce1441a7737a0544fc8d95c1208f25429f9a0c83609ec963c9c302d4428e20cb30468a8a8a604051602001610b2f96959493929190613a6e565b60405160208183030381529060405280519060200120612da7565b9050600560009054906101000a900473ffffffffffffffffffffffffffffffffffffffff1673ffffffffffffffffffffffffffffffffffffffff16610b90828686612dd7565b73ffffffffffffffffffffffffffffffffffffffff1614610be6576040517f08c379a0000000000000000000000000000000000000000000000000000000008152600401610bdd90613b1b565b60405180910390fd5b6001806000898152602001908152602001600020600087815260200190815260200160002060006101000a81548160ff021916908315150217905550610c2c878761294f565b50505050505050565b600060035414610c7a576040517f08c379a0000000000000000000000000000000000000000000000000000000008152600401610c7190613b87565b60405180910390fd5b60016003819055506000806000838152602001908152602001600020905060056006811115610cac57610cab613243565b5b8160040160109054906101000a900460ff166006811115610cd057610ccf613243565b5b1480610d105750600680811115610cea57610ce9613243565b5b8160040160109054906101000a900460ff166006811115610d0e57610d0d613243565b5b145b610d4f576040517f08c379a0000000000000000000000000000000000000000000000000000000008152600401610d4690613bf3565b60405180910390fd5b60006002600084815260200190815260200160002060003373ffffffffffffffffffffffffffffffffffffffff1673ffffffffffffffffffffffffffffffffffffffff16815260200190815260200160002054905060008111610de7576040517f08c379a0000000000000000000000000000000000000000000000000000000008152600401610dde90613c5f565b60405180910390fd5b60006002600085815260200190815260200160002060003373ffffffffffffffffffffffffffffffffffffffff1673ffffffffffffffffffffffffffffffffffffffff1681526020019081526020016000208190555060003373ffffffffffffffffffffffffffffffffffffffff1682604051610e6390613cb0565b60006040518083038185875af1925050503d8060008114610ea0576040519150601f19603f3d011682016040523d82523d6000602084013e610ea5565b606091505b5050905080610ee9576040517f08c379a0000000000000000000000000000000000000000000000000000000008152600401610ee090613d11565b60405180910390fd5b505050600060038190555050565b600460009054906101000a900473ffffffffffffffffffffffffffffffffffffffff1681565b6000806000838152602001908152602001600020905060016006811115610f4757610f46613243565b5b8160040160109054906101000a900460ff166006811115610f6b57610f6a613243565b5b14610fab576040517f08c379a0000000000000000000000000000000000000000000000000000000008152600401610fa290613d7d565b60405180910390fd5b8060000160009054906101000a900473ffffffffffffffffffffffffffffffffffffffff1673ffffffffffffffffffffffffffffffffffffffff163373ffffffffffffffffffffffffffffffffffffffff161461103d576040517f08c379a000000000000000000000000000000000000000000000000000000000815260040161103490613de9565b60405180910390fd5b60068160040160106101000a81548160ff0219169083600681111561106557611064613243565b5b0217905550428160030160106101000a81548167ffffffffffffffff021916908367ffffffffffffffff16021790555080600201546002600084815260200190815260200160002060008360000160009054906101000a900473ffffffffffffffffffffffffffffffffffffffff1673ffffffffffffffffffffffffffffffffffffffff1673ffffffffffffffffffffffffffffffffffffffff16815260200190815260200160002081905550817f700135b4fe8746e2d2c85a9baa43c62887740aebfeb3a439f71a083fe5d5675960405160405180910390a25050565b600080600088815260200190815260200160002090506002600681111561116d5761116c613243565b5b8160040160109054906101000a900460ff16600681111561119157611190613243565b5b146111d1576040517f08c379a00000000000000000000000000000000000000000000000000000000081526004016111c890613967565b60405180910390fd5b6111db8133612f79565b61121a576040517f08c379a000000000000000000000000000000000000000000000000000000000815260040161121190613e55565b60405180910390fd5b8060040160009054906101000a900467ffffffffffffffff1667ffffffffffffffff168160030160109054906101000a900467ffffffffffffffff1667ffffffffffffffff1661126a9190613737565b4210156112ac576040517f08c379a00000000000000000000000000000000000000000000000000000000081526004016112a390613ec1565b60405180910390fd5b60016000888152602001908152602001600020600087815260200190815260200160002060009054906101000a900460ff161561131e576040517f08c379a000000000000000000000000000000000000000000000000000000000815260040161131590613a3f565b60405180910390fd5b60008160000160009054906101000a900473ffffffffffffffffffffffffffffffffffffffff1673ffffffffffffffffffffffffffffffffffffffff163373ffffffffffffffffffffffffffffffffffffffff16146113a1578160000160009054906101000a900473ffffffffffffffffffffffffffffffffffffffff166113c7565b8160010160009054906101000a900473ffffffffffffffffffffffffffffffffffffffff165b905060006114247f09451ab34b0e43b826da04e0fc258616856663f87fe65925bb2493acfa78c56f30468c338d60405160200161140996959493929190613a6e565b60405160208183030381529060405280519060200120612da7565b90503373ffffffffffffffffffffffffffffffffffffffff16611448828989612dd7565b73ffffffffffffffffffffffffffffffffffffffff161461149e576040517f08c379a000000000000000000000000000000000000000000000000000000000815260040161149590613f2d565b60405180910390fd5b8173ffffffffffffffffffffffffffffffffffffffff166114c0828787612dd7565b73ffffffffffffffffffffffffffffffffffffffff1614611516576040517f08c379a000000000000000000000000000000000000000000000000000000000815260040161150d90613f99565b60405180910390fd5b60018060008b815260200190815260200160002060008a815260200190815260200160002060006101000a81548160ff02191690831515021790555060038360040160106101000a81548160ff0219169083600681111561157a57611579613243565b5b0217905550338360060160006101000a81548173ffffffffffffffffffffffffffffffffffffffff021916908373ffffffffffffffffffffffffffffffffffffffff160217905550338360050160006101000a81548173ffffffffffffffffffffffffffffffffffffffff021916908373ffffffffffffffffffffffffffffffffffffffff160217905550428360030160186101000a81548167ffffffffffffffff021916908367ffffffffffffffff160217905550428360030160106101000a81548167ffffffffffffffff021916908367ffffffffffffffff1602179055503373ffffffffffffffffffffffffffffffffffffffff16897f47fd5485c4ff5659cffc4f664af26a17be41d0c46039294375aae51833c5597660405160405180910390a3505050505050505050565b600083036116ed576040517f08c379a00000000000000000000000000000000000000000000000000000000081526004016116e490614005565b60405180910390fd5b6000600681111561170157611700613243565b5b60008085815260200190815260200160002060040160109054906101000a900460ff16600681111561173657611735613243565b5b14611776576040517f08c379a000000000000000000000000000000000000000000000000000000000815260040161176d90614071565b60405180910390fd5b600034116117b9576040517f08c379a00000000000000000000000000000000000000000000000000000000081526004016117b0906140dd565b60405180910390fd5b60008267ffffffffffffffff1611611806576040517f08c379a00000000000000000000000000000000000000000000000000000000081526004016117fd90614149565b60405180910390fd5b60008167ffffffffffffffff1611611853576040517f08c379a000000000000000000000000000000000000000000000000000000000815260040161184a90614005565b60405180910390fd5b6040518061018001604052803373ffffffffffffffffffffffffffffffffffffffff168152602001600073ffffffffffffffffffffffffffffffffffffffff1681526020013481526020014267ffffffffffffffff168152602001600067ffffffffffffffff1681526020014267ffffffffffffffff168152602001600067ffffffffffffffff1681526020018367ffffffffffffffff1681526020018267ffffffffffffffff1681526020016001600681111561191457611913613243565b5b8152602001600073ffffffffffffffffffffffffffffffffffffffff168152602001600073ffffffffffffffffffffffffffffffffffffffff1681525060008085815260200190815260200160002060008201518160000160006101000a81548173ffffffffffffffffffffffffffffffffffffffff021916908373ffffffffffffffffffffffffffffffffffffffff16021790555060208201518160010160006101000a81548173ffffffffffffffffffffffffffffffffffffffff021916908373ffffffffffffffffffffffffffffffffffffffff1602179055506040820151816002015560608201518160030160006101000a81548167ffffffffffffffff021916908367ffffffffffffffff16021790555060808201518160030160086101000a81548167ffffffffffffffff021916908367ffffffffffffffff16021790555060a08201518160030160106101000a81548167ffffffffffffffff021916908367ffffffffffffffff16021790555060c08201518160030160186101000a81548167ffffffffffffffff021916908367ffffffffffffffff16021790555060e08201518160040160006101000a81548167ffffffffffffffff021916908367ffffffffffffffff1602179055506101008201518160040160086101000a81548167ffffffffffffffff021916908367ffffffffffffffff1602179055506101208201518160040160106101000a81548160ff02191690836006811115611b4257611b41613243565b5b02179055506101408201518160050160006101000a81548173ffffffffffffffffffffffffffffffffffffffff021916908373ffffffffffffffffffffffffffffffffffffffff1602179055506101608201518160060160006101000a81548173ffffffffffffffffffffffffffffffffffffffff021916908373ffffffffffffffffffffffffffffffffffffffff1602179055509050503373ffffffffffffffffffffffffffffffffffffffff16837fd54e72c7c537da5aba0c3d338b5fcbe4ee8d6e4dce121c81c8c57aa13e5c6d6434604051611c21919061311d565b60405180910390a3505050565b6000806000888152602001908152602001600020905060036006811115611c5857611c57613243565b5b8160040160109054906101000a900460ff166006811115611c7c57611c7b613243565b5b14611cbc576040517f08c379a0000000000000000000000000000000000000000000000000000000008152600401611cb3906141b5565b60405180910390fd5b611cc68133612f79565b611d05576040517f08c379a0000000000000000000000000000000000000000000000000000000008152600401611cfc90613e55565b60405180910390fd5b8060060160009054906101000a900473ffffffffffffffffffffffffffffffffffffffff1673ffffffffffffffffffffffffffffffffffffffff163373ffffffffffffffffffffffffffffffffffffffff1603611d97576040517f08c379a0000000000000000000000000000000000000000000000000000000008152600401611d8e90614221565b60405180910390fd5b8060040160089054906101000a900467ffffffffffffffff1667ffffffffffffffff168160030160189054906101000a900467ffffffffffffffff1667ffffffffffffffff16611de79190613737565b4210611e28576040517f08c379a0000000000000000000000000000000000000000000000000000000008152600401611e1f9061428d565b60405180910390fd5b60016000888152602001908152602001600020600087815260200190815260200160002060009054906101000a900460ff1615611e9a576040517f08c379a0000000000000000000000000000000000000000000000000000000008152600401611e9190613a3f565b60405180910390fd5b6000611ef37f22ecfef0a7cd10ea89d794eb95edbabf661b5cbe7556b8d315caff1713b34ed930468b8b604051602001611ed89594939291906142ad565b60405160208183030381529060405280519060200120612da7565b90508160000160009054906101000a900473ffffffffffffffffffffffffffffffffffffffff1673ffffffffffffffffffffffffffffffffffffffff16611f3b828888612dd7565b73ffffffffffffffffffffffffffffffffffffffff1614611f91576040517f08c379a0000000000000000000000000000000000000000000000000000000008152600401611f889061434c565b60405180910390fd5b8160010160009054906101000a900473ffffffffffffffffffffffffffffffffffffffff1673ffffffffffffffffffffffffffffffffffffffff16611fd7828686612dd7565b73ffffffffffffffffffffffffffffffffffffffff161461202d576040517f08c379a0000000000000000000000000000000000000000000000000000000008152600401612024906143b8565b60405180910390fd5b60018060008a8152602001908152602001600020600089815260200190815260200160002060006101000a81548160ff02191690831515021790555060048260040160106101000a81548160ff0219169083600681111561209157612090613243565b5b0217905550428260030160106101000a81548167ffffffffffffffff021916908367ffffffffffffffff1602179055503373ffffffffffffffffffffffffffffffffffffffff16887f829b4d84d4743d197a9b0fad05abef9f517535e06d50e0b85b1e77089b8afa9d60405160405180910390a35050505050505050565b600080600089815260200190815260200160002090506002600681111561213957612138613243565b5b8160040160109054906101000a900460ff16600681111561215d5761215c613243565b5b148061219e57506003600681111561217857612177613243565b5b8160040160109054906101000a900460ff16600681111561219c5761219b613243565b5b145b806121de5750600460068111156121b8576121b7613243565b5b8160040160109054906101000a900460ff1660068111156121dc576121db613243565b5b145b61221d576040517f08c379a000000000000000000000000000000000000000000000000000000000815260040161221490613967565b60405180910390fd5b6122278133612f79565b612266576040517f08c379a000000000000000000000000000000000000000000000000000000000815260040161225d90613e55565b60405180910390fd5b8060000160009054906101000a900473ffffffffffffffffffffffffffffffffffffffff1673ffffffffffffffffffffffffffffffffffffffff168773ffffffffffffffffffffffffffffffffffffffff16148061231357508060010160009054906101000a900473ffffffffffffffffffffffffffffffffffffffff1673ffffffffffffffffffffffffffffffffffffffff168773ffffffffffffffffffffffffffffffffffffffff16145b612352576040517f08c379a0000000000000000000000000000000000000000000000000000000008152600401612349906139d3565b60405180910390fd5b60016000898152602001908152602001600020600087815260200190815260200160002060009054906101000a900460ff16156123c4576040517f08c379a00000000000000000000000000000000000000000000000000000000081526004016123bb90613a3f565b60405180910390fd5b600061241f7f55354d90593e3d45b96e1bebcb42acde2ebff536d6d65f9c2eb39b188228b0bd30468c8c8c60405160200161240496959493929190613a6e565b60405160208183030381529060405280519060200120612da7565b90508160000160009054906101000a900473ffffffffffffffffffffffffffffffffffffffff1673ffffffffffffffffffffffffffffffffffffffff16612467828888612dd7565b73ffffffffffffffffffffffffffffffffffffffff16146124bd576040517f08c379a00000000000000000000000000000000000000000000000000000000081526004016124b49061434c565b60405180910390fd5b8160010160009054906101000a900473ffffffffffffffffffffffffffffffffffffffff1673ffffffffffffffffffffffffffffffffffffffff16612503828686612dd7565b73ffffffffffffffffffffffffffffffffffffffff1614612559576040517f08c379a0000000000000000000000000000000000000000000000000000000008152600401612550906143b8565b60405180910390fd5b60018060008b8152602001908152602001600020600089815260200190815260200160002060006101000a81548160ff0219169083151502179055508773ffffffffffffffffffffffffffffffffffffffff163373ffffffffffffffffffffffffffffffffffffffff168a7fd9af577d55129e6451386fc55b970ada159dd9e3973646fa4d26ae72440b2abf60405160405180910390a46125fa898961294f565b505050505050505050565b600080600083815260200190815260200160002090506000820361265e576040517f08c379a000000000000000000000000000000000000000000000000000000000815260040161265590614424565b60405180910390fd5b6001600681111561267257612671613243565b5b8160040160109054906101000a900460ff16600681111561269657612695613243565b5b146126d6576040517f08c379a00000000000000000000000000000000000000000000000000000000081526004016126cd90613d7d565b60405180910390fd5b8060000160009054906101000a900473ffffffffffffffffffffffffffffffffffffffff1673ffffffffffffffffffffffffffffffffffffffff163373ffffffffffffffffffffffffffffffffffffffff1603612768576040517f08c379a000000000000000000000000000000000000000000000000000000000815260040161275f90614490565b60405180910390fd5b600073ffffffffffffffffffffffffffffffffffffffff168160010160009054906101000a900473ffffffffffffffffffffffffffffffffffffffff1673ffffffffffffffffffffffffffffffffffffffff16146127fb576040517f08c379a00000000000000000000000000000000000000000000000000000000081526004016127f2906144fc565b60405180910390fd5b80600201543414612841576040517f08c379a000000000000000000000000000000000000000000000000000000000815260040161283890614568565b60405180910390fd5b338160010160006101000a81548173ffffffffffffffffffffffffffffffffffffffff021916908373ffffffffffffffffffffffffffffffffffffffff16021790555060028160040160106101000a81548160ff021916908360068111156128ac576128ab613243565b5b0217905550428160030160086101000a81548167ffffffffffffffff021916908367ffffffffffffffff160217905550428160030160106101000a81548167ffffffffffffffff021916908367ffffffffffffffff1602179055503373ffffffffffffffffffffffffffffffffffffffff16827f50d6e5d288766a7340b6110b6738cac822c48c128a47399df2fad303041f8d5060405160405180910390a35050565b600080600084815260200190815260200160002090506005600681111561297957612978613243565b5b8160040160109054906101000a900460ff16600681111561299d5761299c613243565b5b141580156129e057506006808111156129b9576129b8613243565b5b8160040160109054906101000a900460ff1660068111156129dd576129dc613243565b5b14155b612a1f576040517f08c379a0000000000000000000000000000000000000000000000000000000008152600401612a16906145d4565b60405180910390fd5b60058160040160106101000a81548160ff02191690836006811115612a4757612a46613243565b5b0217905550428160030160106101000a81548167ffffffffffffffff021916908367ffffffffffffffff16021790555060008160030160186101000a81548167ffffffffffffffff021916908367ffffffffffffffff16021790555060008160060160006101000a81548173ffffffffffffffffffffffffffffffffffffffff021916908373ffffffffffffffffffffffffffffffffffffffff160217905550600073ffffffffffffffffffffffffffffffffffffffff168273ffffffffffffffffffffffffffffffffffffffff1603612c925780600201546002600085815260200190815260200160002060008360000160009054906101000a900473ffffffffffffffffffffffffffffffffffffffff1673ffffffffffffffffffffffffffffffffffffffff1673ffffffffffffffffffffffffffffffffffffffff1681526020019081526020016000206000828254612ba39190613737565b9250508190555080600201546002600085815260200190815260200160002060008360010160009054906101000a900473ffffffffffffffffffffffffffffffffffffffff1673ffffffffffffffffffffffffffffffffffffffff1673ffffffffffffffffffffffffffffffffffffffff1681526020019081526020016000206000828254612c329190613737565b92505081905550600073ffffffffffffffffffffffffffffffffffffffff16837f0c93568a8271cba7710c6d02451f3e71e0c940d1ccc2ac79c4c45db392fc19d28360020154604051612c85919061311d565b60405180910390a3612da2565b600060028260020154612ca591906145f4565b9050828260050160006101000a81548173ffffffffffffffffffffffffffffffffffffffff021916908373ffffffffffffffffffffffffffffffffffffffff160217905550806002600086815260200190815260200160002060008573ffffffffffffffffffffffffffffffffffffffff1673ffffffffffffffffffffffffffffffffffffffff1681526020019081526020016000206000828254612d4a9190613737565b925050819055508273ffffffffffffffffffffffffffffffffffffffff16847f0c93568a8271cba7710c6d02451f3e71e0c940d1ccc2ac79c4c45db392fc19d283604051612d98919061311d565b60405180910390a3505b505050565b600081604051602001612dba91906146ae565b604051602081830303815290604052805190602001209050919050565b600060418383905014612e1f576040517f08c379a0000000000000000000000000000000000000000000000000000000008152600401612e1690614720565b60405180910390fd5b60008060008535925060208601359150604086013560001a9050601b8160ff161015612e5557601b81612e52919061474d565b90505b601b8160ff161480612e6a5750601c8160ff16145b612ea9576040517f08c379a0000000000000000000000000000000000000000000000000000000008152600401612ea0906147ce565b60405180910390fd5b600060018883868660405160008152602001604052604051612ece94939291906147fd565b6020604051602081039080840390855afa158015612ef0573d6000803e3d6000fd5b505050602060405103519050600073ffffffffffffffffffffffffffffffffffffffff168173ffffffffffffffffffffffffffffffffffffffff1603612f6b576040517f08c379a0000000000000000000000000000000000000000000000000000000008152600401612f629061488e565b60405180910390fd5b809450505050509392505050565b60008260000160009054906101000a900473ffffffffffffffffffffffffffffffffffffffff1673ffffffffffffffffffffffffffffffffffffffff168273ffffffffffffffffffffffffffffffffffffffff16148061302857508260010160009054906101000a900473ffffffffffffffffffffffffffffffffffffffff1673ffffffffffffffffffffffffffffffffffffffff168273ffffffffffffffffffffffffffffffffffffffff16145b905092915050565b600080fd5b600080fd5b6000819050919050565b61304d8161303a565b811461305857600080fd5b50565b60008135905061306a81613044565b92915050565b600073ffffffffffffffffffffffffffffffffffffffff82169050919050565b600061309b82613070565b9050919050565b6130ab81613090565b81146130b657600080fd5b50565b6000813590506130c8816130a2565b92915050565b600080604083850312156130e5576130e4613030565b5b60006130f38582860161305b565b9250506020613104858286016130b9565b9150509250929050565b6131178161303a565b82525050565b6000602082019050613132600083018461310e565b92915050565b6000819050919050565b61314b81613138565b811461315657600080fd5b50565b60008135905061316881613142565b92915050565b6000806040838503121561318557613184613030565b5b60006131938582860161305b565b92505060206131a485828601613159565b9150509250929050565b60008115159050919050565b6131c3816131ae565b82525050565b60006020820190506131de60008301846131ba565b92915050565b6000602082840312156131fa576131f9613030565b5b60006132088482850161305b565b91505092915050565b61321a81613090565b82525050565b600067ffffffffffffffff82169050919050565b61323d81613220565b82525050565b7f4e487b7100000000000000000000000000000000000000000000000000000000600052602160045260246000fd5b6007811061328357613282613243565b5b50565b600081905061329482613272565b919050565b60006132a482613286565b9050919050565b6132b481613299565b82525050565b6000610180820190506132d0600083018f613211565b6132dd602083018e613211565b6132ea604083018d61310e565b6132f7606083018c613234565b613304608083018b613234565b61331160a083018a613234565b61331e60c0830189613234565b61332b60e0830188613234565b613339610100830187613234565b6133476101208301866132ab565b613355610140830185613211565b613363610160830184613211565b9d9c50505050505050505050505050565b60006020828403121561338a57613389613030565b5b6000613398848285016130b9565b91505092915050565b60006020820190506133b66000830184613211565b92915050565b600080fd5b600080fd5b600080fd5b60008083601f8401126133e1576133e06133bc565b5b8235905067ffffffffffffffff8111156133fe576133fd6133c1565b5b60208301915083600182028301111561341a576134196133c6565b5b9250929050565b60008060008060006080868803121561343d5761343c613030565b5b600061344b8882890161305b565b955050602061345c888289016130b9565b945050604061346d88828901613159565b935050606086013567ffffffffffffffff81111561348e5761348d613035565b5b61349a888289016133cb565b92509250509295509295909350565b600080600080600080608087890312156134c6576134c5613030565b5b60006134d489828a0161305b565b96505060206134e589828a01613159565b955050604087013567ffffffffffffffff81111561350657613505613035565b5b61351289828a016133cb565b9450945050606087013567ffffffffffffffff81111561353557613534613035565b5b61354189828a016133cb565b92509250509295509295509295565b61355981613220565b811461356457600080fd5b50565b60008135905061357681613550565b92915050565b60008060006060848603121561359557613594613030565b5b60006135a38682870161305b565b93505060206135b486828701613567565b92505060406135c586828701613567565b9150509250925092565b600080600080600080600060a0888a0312156135ee576135ed613030565b5b60006135fc8a828b0161305b565b975050602061360d8a828b016130b9565b965050604061361e8a828b01613159565b955050606088013567ffffffffffffffff81111561363f5761363e613035565b5b61364b8a828b016133cb565b9450945050608088013567ffffffffffffffff81111561366e5761366d613035565b5b61367a8a828b016133cb565b925092505092959891949750929550565b600082825260208201905092915050565b7f4e6f20636c61696d000000000000000000000000000000000000000000000000600082015250565b60006136d260088361368b565b91506136dd8261369c565b602082019050919050565b60006020820190508181036000830152613701816136c5565b9050919050565b7f4e487b7100000000000000000000000000000000000000000000000000000000600052601160045260246000fd5b60006137428261303a565b915061374d8361303a565b925082820190508082111561376557613764613708565b5b92915050565b7f446973707574652077696e646f77206163746976650000000000000000000000600082015250565b60006137a160158361368b565b91506137ac8261376b565b602082019050919050565b600060208201905081810360008301526137d081613794565b9050919050565b7f4e6f20636c61696d616e74000000000000000000000000000000000000000000600082015250565b600061380d600b8361368b565b9150613818826137d7565b602082019050919050565b6000602082019050818103600083015261383c81613800565b9050919050565b7f4f6e6c79206f776e657200000000000000000000000000000000000000000000600082015250565b6000613879600a8361368b565b915061388482613843565b602082019050919050565b600060208201905081810360008301526138a88161386c565b9050919050565b7f496e76616c6964206f7261636c65000000000000000000000000000000000000600082015250565b60006138e5600e8361368b565b91506138f0826138af565b602082019050919050565b60006020820190508181036000830152613914816138d8565b9050919050565b7f4261642073746174650000000000000000000000000000000000000000000000600082015250565b600061395160098361368b565b915061395c8261391b565b602082019050919050565b6000602082019050818103600083015261398081613944565b9050919050565b7f4261642077696e6e657200000000000000000000000000000000000000000000600082015250565b60006139bd600a8361368b565b91506139c882613987565b602082019050919050565b600060208201905081810360008301526139ec816139b0565b9050919050565b7f436865636b706f696e7420757365640000000000000000000000000000000000600082015250565b6000613a29600f8361368b565b9150613a34826139f3565b602082019050919050565b60006020820190508181036000830152613a5881613a1c565b9050919050565b613a6881613138565b82525050565b600060c082019050613a836000830189613a5f565b613a906020830188613211565b613a9d604083018761310e565b613aaa606083018661310e565b613ab76080830185613211565b613ac460a0830184613a5f565b979650505050505050565b7f426164206f7261636c65207369676e6174757265000000000000000000000000600082015250565b6000613b0560148361368b565b9150613b1082613acf565b602082019050919050565b60006020820190508181036000830152613b3481613af8565b9050919050565b7f5265656e7472616e637900000000000000000000000000000000000000000000600082015250565b6000613b71600a8361368b565b9150613b7c82613b3b565b602082019050919050565b60006020820190508181036000830152613ba081613b64565b9050919050565b7f4e6f7420636c61696d61626c6500000000000000000000000000000000000000600082015250565b6000613bdd600d8361368b565b9150613be882613ba7565b602082019050919050565b60006020820190508181036000830152613c0c81613bd0565b9050919050565b7f4e6f7468696e6720746f20636c61696d00000000000000000000000000000000600082015250565b6000613c4960108361368b565b9150613c5482613c13565b602082019050919050565b60006020820190508181036000830152613c7881613c3c565b9050919050565b600081905092915050565b50565b6000613c9a600083613c7f565b9150613ca582613c8a565b600082019050919050565b6000613cbb82613c8d565b9150819050919050565b7f5472616e73666572206661696c65640000000000000000000000000000000000600082015250565b6000613cfb600f8361368b565b9150613d0682613cc5565b602082019050919050565b60006020820190508181036000830152613d2a81613cee565b9050919050565b7f4e6f74206f70656e000000000000000000000000000000000000000000000000600082015250565b6000613d6760088361368b565b9150613d7282613d31565b602082019050919050565b60006020820190508181036000830152613d9681613d5a565b9050919050565b7f4f6e6c792063726561746f720000000000000000000000000000000000000000600082015250565b6000613dd3600c8361368b565b9150613dde82613d9d565b602082019050919050565b60006020820190508181036000830152613e0281613dc6565b9050919050565b7f4e6f74207061727469636970616e740000000000000000000000000000000000600082015250565b6000613e3f600f8361368b565b9150613e4a82613e09565b602082019050919050565b60006020820190508181036000830152613e6e81613e32565b9050919050565b7f4d6f76652074696d656f7574206e6f7420726561636865640000000000000000600082015250565b6000613eab60188361368b565b9150613eb682613e75565b602082019050919050565b60006020820190508181036000830152613eda81613e9e565b9050919050565b7f42616420636c61696d616e742073696700000000000000000000000000000000600082015250565b6000613f1760108361368b565b9150613f2282613ee1565b602082019050919050565b60006020820190508181036000830152613f4681613f0a565b9050919050565b7f42616420636f756e746572706172747920736967000000000000000000000000600082015250565b6000613f8360148361368b565b9150613f8e82613f4d565b602082019050919050565b60006020820190508181036000830152613fb281613f76565b9050919050565b7f496e76616c696400000000000000000000000000000000000000000000000000600082015250565b6000613fef60078361368b565b9150613ffa82613fb9565b602082019050919050565b6000602082019050818103600083015261401e81613fe2565b9050919050565b7f4d617463682065786973747320616c7265616479000000000000000000000000600082015250565b600061405b60148361368b565b915061406682614025565b602082019050919050565b6000602082019050818103600083015261408a8161404e565b9050919050565b7f50757420736f6d65207374616b65000000000000000000000000000000000000600082015250565b60006140c7600e8361368b565b91506140d282614091565b602082019050919050565b600060208201905081810360008301526140f6816140ba565b9050919050565b7f496e76616c6964206d6f766554696d656f757400000000000000000000000000600082015250565b600061413360138361368b565b915061413e826140fd565b602082019050919050565b6000602082019050818103600083015261416281614126565b9050919050565b7f4e6f2061637469766520636c61696d0000000000000000000000000000000000600082015250565b600061419f600f8361368b565b91506141aa82614169565b602082019050919050565b600060208201905081810360008301526141ce81614192565b9050919050565b7f436c61696d616e742063616e6e6f74206368616c6c656e676500000000000000600082015250565b600061420b60198361368b565b9150614216826141d5565b602082019050919050565b6000602082019050818103600083015261423a816141fe565b9050919050565b7f446973707574652077696e646f7720636c6f7365640000000000000000000000600082015250565b600061427760158361368b565b915061428282614241565b602082019050919050565b600060208201905081810360008301526142a68161426a565b9050919050565b600060a0820190506142c26000830188613a5f565b6142cf6020830187613211565b6142dc604083018661310e565b6142e9606083018561310e565b6142f66080830184613a5f565b9695505050505050565b7f4261642063726561746f72207369670000000000000000000000000000000000600082015250565b6000614336600f8361368b565b915061434182614300565b602082019050919050565b6000602082019050818103600083015261436581614329565b9050919050565b7f426164206f70706f6e656e742073696700000000000000000000000000000000600082015250565b60006143a260108361368b565b91506143ad8261436c565b602082019050919050565b600060208201905081810360008301526143d181614395565b9050919050565b7f696e76616c6964206d6174636869640000000000000000000000000000000000600082015250565b600061440e600f8361368b565b9150614419826143d8565b602082019050919050565b6000602082019050818103600083015261443d81614401565b9050919050565b7f63726561746f722063616e74206a6f696e000000000000000000000000000000600082015250565b600061447a60118361368b565b915061448582614444565b602082019050919050565b600060208201905081810360008301526144a98161446d565b9050919050565b7f616c7265616479206a6f696e6564200000000000000000000000000000000000600082015250565b60006144e6600f8361368b565b91506144f1826144b0565b602082019050919050565b60006020820190508181036000830152614515816144d9565b9050919050565b7f7374616b65206d69736d61746368000000000000000000000000000000000000600082015250565b6000614552600e8361368b565b915061455d8261451c565b602082019050919050565b6000602082019050818103600083015261458181614545565b9050919050565b7f46696e616c697a65640000000000000000000000000000000000000000000000600082015250565b60006145be60098361368b565b91506145c982614588565b602082019050919050565b600060208201905081810360008301526145ed816145b1565b9050919050565b60006145ff8261303a565b915061460a8361303a565b92508282026146188161303a565b9150828204841483151761462f5761462e613708565b5b5092915050565b600081905092915050565b7f19457468657265756d205369676e6564204d6573736167653a0a333200000000600082015250565b6000614677601c83614636565b915061468282614641565b601c82019050919050565b6000819050919050565b6146a86146a382613138565b61468d565b82525050565b60006146b98261466a565b91506146c58284614697565b60208201915081905092915050565b7f42616420736967206c656e677468000000000000000000000000000000000000600082015250565b600061470a600e8361368b565b9150614715826146d4565b602082019050919050565b60006020820190508181036000830152614739816146fd565b9050919050565b600060ff82169050919050565b600061475882614740565b915061476383614740565b9250828201905060ff81111561477c5761477b613708565b5b92915050565b7f4261642076000000000000000000000000000000000000000000000000000000600082015250565b60006147b860058361368b565b91506147c382614782565b602082019050919050565b600060208201905081810360008301526147e7816147ab565b9050919050565b6147f781614740565b82525050565b60006080820190506148126000830187613a5f565b61481f60208301866147ee565b61482c6040830185613a5f565b6148396060830184613a5f565b95945050505050565b7f4261642073696700000000000000000000000000000000000000000000000000600082015250565b600061487860078361368b565b915061488382614842565b602082019050919050565b600060208201905081810360008301526148a78161486b565b905091905056fea2646970667358221220cf0fe014e106b37d9969e896b034bd9949024f146f94f35c2decc0ef26c9577d64736f6c63430008180033",
  "linkReferences": {},
  "deployedLinkReferences": {}
}