{
  "_format": "hh-sol-artifact-1",
  "contractName": "MatchEscrow",
  "sourceName": "contracts/MatchEscrow.sol",
  "abi": [
    {
      "anonymous": false,
      "inputs": [
        {
          "indexed": true,
          "internalType": "uint256",
          "name": "matchId",
          "type": "uint256"
        },
        {
          "indexed": true,
          "internalType": "address",
          "name": "challenger",
          "type": "address"
        }
      ],
      "name": "ClaimChallenged",
      "type": "event"
    },
    {
      "anonymous": false,
      "inputs": [
        {
          "indexed": true,
          "internalType": "uint256",
          "name": "matchId",
          "type": "uint256"
        },
        {
          "indexed": true,
          "internalType": "address",
          "name": "claimant",
          "type": "address"
        }
      ],
      "name": "ForfeitClaimOpened",
      "type": "event"
    },
    {
      "anonymous": false,
      "inputs": [
        {
          "indexed": true,
          "internalType": "uint256",
          "name": "matchId",
          "type": "uint256"
        }
      ],
      "name": "MatchCancelled",
      "type": "event"
    },
    {
      "anonymous": false,
      "inputs": [
        {
          "indexed": true,
          "internalType": "uint256",
          "name": "matchId",
          "type": "uint256"
        },
        {
          "indexed": true,
          "internalType": "address",
          "name": "creator",
          "type": "address"
        },
        {
          "indexed": false,
          "internalType": "uint256",
          "name": "stakeAmount",
          "type": "uint256"
        }
      ],
      "name": "MatchCreated",
      "type": "event"
    },
    {
      "anonymous": false,
      "inputs": [
        {
          "indexed": true,
          "internalType": "uint256",
          "name": "matchId",
          "type": "uint256"
        },
        {
          "indexed": true,
          "internalType": "address",
          "name": "opponent",
          "type": "address"
        }
      ],
      "name": "MatchJoined",
      "type": "event"
    },
    {
      "anonymous": false,
      "inputs": [
        {
          "indexed": true,
          "internalType": "uint256",
          "name": "matchId",
          "type": "uint256"
        },
        {
          "indexed": true,
          "internalType": "address",
          "name": "winner",
          "type": "address"
        },
        {
          "indexed": false,
          "internalType": "uint256",
          "name": "payout",
          "type": "uint256"
        }
      ],
      "name": "MatchSettled",
      "type": "event"
    },
    {
      "anonymous": false,
      "inputs": [
        {
          "indexed": true,
          "internalType": "uint256",
          "name": "matchId",
          "type": "uint256"
        },
        {
          "indexed": true,
          "internalType": "address",
          "name": "proposer",
          "type": "address"
        },
        {
          "indexed": true,
          "internalType": "address",
          "name": "winner",
          "type": "address"
        }
      ],
      "name": "ResultProposed",
      "type": "event"
    },
    {
      "inputs": [
        {
          "internalType": "uint256",
          "name": "matchId",
          "type": "uint256"
        }
      ],
      "name": "cancelOpenMatch",
      "outputs": [],
      "stateMutability": "nonpayable",
      "type": "function"
    },
    {
      "inputs": [
        {
          "internalType": "uint256",
          "name": "matchId",
          "type": "uint256"
        },
        {
          "internalType": "bytes32",
          "name": "newerCheckpointHash",
          "type": "bytes32"
        },
        {
          "internalType": "bytes",
          "name": "creatorSig",
          "type": "bytes"
        },
        {
          "internalType": "bytes",
          "name": "opponentSig",
          "type": "bytes"
        }
      ],
      "name": "challengeClaim",
      "outputs": [],
      "stateMutability": "nonpayable",
      "type": "function"
    },
    {
      "inputs": [
        {
          "internalType": "uint256",
          "name": "matchId",
          "type": "uint256"
        }
      ],
      "name": "claimPayout",
      "outputs": [],
      "stateMutability": "nonpayable",
      "type": "function"
    },
    {
      "inputs": [
        {
          "internalType": "uint256",
          "name": "",
          "type": "uint256"
        },
        {
          "internalType": "address",
          "name": "",
          "type": "address"
        }
      ],
      "name": "claimablePayouts",
      "outputs": [
        {
          "internalType": "uint256",
          "name": "",
          "type": "uint256"
        }
      ],
      "stateMutability": "view",
      "type": "function"
    },
    {
      "inputs": [
        {
          "internalType": "uint256",
          "name": "matchId",
          "type": "uint256"
        },
        {
          "internalType": "uint64",
          "name": "moveTimeout",
          "type": "uint64"
        },
        {
          "internalType": "uint64",
          "name": "disputeWindow",
          "type": "uint64"
        }
      ],
      "name": "createMatch",
      "outputs": [],
      "stateMutability": "payable",
      "type": "function"
    },
    {
      "inputs": [
        {
          "internalType": "uint256",
          "name": "matchId",
          "type": "uint256"
        }
      ],
      "name": "finalizeClaim",
      "outputs": [],
      "stateMutability": "nonpayable",
      "type": "function"
    },
    {
      "inputs": [
        {
          "internalType": "uint256",
          "name": "matchId",
          "type": "uint256"
        }
      ],
      "name": "joinMatch",
      "outputs": [],
      "stateMutability": "payable",
      "type": "function"
    },
    {
      "inputs": [
        {
          "internalType": "uint256",
          "name": "",
          "type": "uint256"
        }
      ],
      "name": "matches",
      "outputs": [
        {
          "internalType": "address",
          "name": "creator",
          "type": "address"
        },
        {
          "internalType": "address",
          "name": "opponent",
          "type": "address"
        },
        {
          "internalType": "uint256",
          "name": "stakeAmount",
          "type": "uint256"
        },
        {
          "internalType": "uint64",
          "name": "createdAt",
          "type": "uint64"
        },
        {
          "internalType": "uint64",
          "name": "startedAt",
          "type": "uint64"
        },
        {
          "internalType": "uint64",
          "name": "lastActionAt",
          "type": "uint64"
        },
        {
          "internalType": "uint64",
          "name": "claimOpenedAt",
          "type": "uint64"
        },
        {
          "internalType": "uint64",
          "name": "moveTimeout",
          "type": "uint64"
        },
        {
          "internalType": "uint64",
          "name": "disputeWindow",
          "type": "uint64"
        },
        {
          "internalType": "enum MatchEscrow.MatchStatus",
          "name": "status",
          "type": "uint8"
        },
        {
          "internalType": "address",
          "name": "winner",
          "type": "address"
        },
        {
          "internalType": "address",
          "name": "claimant",
          "type": "address"
        }
      ],
      "stateMutability": "view",
      "type": "function"
    },
    {
      "inputs": [
        {
          "internalType": "uint256",
          "name": "matchId",
          "type": "uint256"
        },
        {
          "internalType": "bytes32",
          "name": "checkpointHash",
          "type": "bytes32"
        },
        {
          "internalType": "bytes",
          "name": "claimantSig",
          "type": "bytes"
        },
        {
          "internalType": "bytes",
          "name": "counterpartySig",
          "type": "bytes"
        }
      ],
      "name": "openForfeitClaim",
      "outputs": [],
      "stateMutability": "nonpayable",
      "type": "function"
    },
    {
      "inputs": [
        {
          "internalType": "uint256",
          "name": "matchId",
          "type": "uint256"
        },
        {
          "internalType": "address",
          "name": "winner",
          "type": "address"
        },
        {
          "internalType": "bytes32",
          "name": "checkpointHash",
          "type": "bytes32"
        },
        {
          "internalType": "bytes",
          "name": "creatorSig",
          "type": "bytes"
        },
        {
          "internalType": "bytes",
          "name": "opponentSig",
          "type": "bytes"
        }
      ],
      "name": "proposeResult",
      "outputs": [],
      "stateMutability": "nonpayable",
      "type": "function"
    },
    {
      "inputs": [
        {
          "internalType": "uint256",
          "name": "",
          "type": "uint256"
        },
        {
          "internalType": "bytes32",
          "name": "",
          "type": "bytes32"
        }
      ],
      "name": "usedCheckpoints",
      "outputs": [
        {
          "internalType": "bool",
          "name": "",
          "type": "bool"
        }
      ],
      "stateMutability": "view",
      "type": "function"
    }
  ],
  "bytecode": "0x608060405234801561001057600080fd5b50613ef8806100206000396000f3fe60806040526004361061009c5760003560e01c8063988e7fc711610064578063988e7fc7146101b5578063a3b2b052146101de578063aa63c61814610207578063d991db7d14610223578063dd7ca0c21461024c578063feb8c438146102755761009c565b8063320b698f146100a157806344e58e30146100de5780634768d4ef1461011b5780637a971114146101635780638a69614e1461018c575b600080fd5b3480156100ad57600080fd5b506100c860048036038101906100c391906128f6565b610291565b6040516100d59190612945565b60405180910390f35b3480156100ea57600080fd5b5061010560048036038101906101009190612996565b6102b6565b60405161011291906129f1565b60405180910390f35b34801561012757600080fd5b50610142600480360381019061013d9190612a0c565b6102e5565b60405161015a9c9b9a99989796959493929190612ae2565b60405180910390f35b34801561016f57600080fd5b5061018a60048036038101906101859190612a0c565b61044a565b005b34801561019857600080fd5b506101b360048036038101906101ae9190612a0c565b61062f565b005b3480156101c157600080fd5b506101dc60048036038101906101d79190612a0c565b6108f1565b005b3480156101ea57600080fd5b5061020560048036038101906102009190612c01565b610b17565b005b610221600480360381019061021c9190612cd4565b61107e565b005b34801561022f57600080fd5b5061024a60048036038101906102459190612c01565b611602565b005b34801561025857600080fd5b50610273600480360381019061026e9190612d27565b611ae3565b005b61028f600480360381019061028a9190612a0c565b611fd9565b005b6002602052816000526040600020602052806000526040600020600091509150505481565b60016020528160005260406000206020528060005260406000206000915091509054906101000a900460ff1681565b60006020528060005260406000206000915090508060000160009054906101000a900473ffffffffffffffffffffffffffffffffffffffff16908060010160009054906101000a900473ffffffffffffffffffffffffffffffffffffffff16908060020154908060030160009054906101000a900467ffffffffffffffff16908060030160089054906101000a900467ffffffffffffffff16908060030160109054906101000a900467ffffffffffffffff16908060030160189054906101000a900467ffffffffffffffff16908060040160009054906101000a900467ffffffffffffffff16908060040160089054906101000a900467ffffffffffffffff16908060040160109054906101000a900460ff16908060050160009054906101000a900473ffffffffffffffffffffffffffffffffffffffff16908060060160009054906101000a900473ffffffffffffffffffffffffffffffffffffffff1690508c565b600080600083815260200190815260200160002090506003600681111561047457610473612a6b565b5b8160040160109054906101000a900460ff16600681111561049857610497612a6b565b5b146104d8576040517f08c379a00000000000000000000000000000000000000000000000000000000081526004016104cf90612e40565b60405180910390fd5b8060040160089054906101000a900467ffffffffffffffff1667ffffffffffffffff168160030160189054906101000a900467ffffffffffffffff1667ffffffffffffffff166105289190612e8f565b42101561056a576040517f08c379a000000000000000000000000000000000000000000000000000000000815260040161056190612f0f565b60405180910390fd5b600073ffffffffffffffffffffffffffffffffffffffff168160060160009054906101000a900473ffffffffffffffffffffffffffffffffffffffff1673ffffffffffffffffffffffffffffffffffffffff16036105fd576040517f08c379a00000000000000000000000000000000000000000000000000000000081526004016105f490612f7b565b60405180910390fd5b61062b828260060160009054906101000a900473ffffffffffffffffffffffffffffffffffffffff16612323565b5050565b600060035414610674576040517f08c379a000000000000000000000000000000000000000000000000000000000815260040161066b90612fe7565b60405180910390fd5b600160038190555060008060008381526020019081526020016000209050600560068111156106a6576106a5612a6b565b5b8160040160109054906101000a900460ff1660068111156106ca576106c9612a6b565b5b148061070a57506006808111156106e4576106e3612a6b565b5b8160040160109054906101000a900460ff16600681111561070857610707612a6b565b5b145b610749576040517f08c379a000000000000000000000000000000000000000000000000000000000815260040161074090613053565b60405180910390fd5b60006002600084815260200190815260200160002060003373ffffffffffffffffffffffffffffffffffffffff1673ffffffffffffffffffffffffffffffffffffffff168152602001908152602001600020549050600081116107e1576040517f08c379a00000000000000000000000000000000000000000000000000000000081526004016107d8906130bf565b60405180910390fd5b60006002600085815260200190815260200160002060003373ffffffffffffffffffffffffffffffffffffffff1673ffffffffffffffffffffffffffffffffffffffff1681526020019081526020016000208190555060003373ffffffffffffffffffffffffffffffffffffffff168260405161085d90613110565b60006040518083038185875af1925050503d806000811461089a576040519150601f19603f3d011682016040523d82523d6000602084013e61089f565b606091505b50509050806108e3576040517f08c379a00000000000000000000000000000000000000000000000000000000081526004016108da90613171565b60405180910390fd5b505050600060038190555050565b600080600083815260200190815260200160002090506001600681111561091b5761091a612a6b565b5b8160040160109054906101000a900460ff16600681111561093f5761093e612a6b565b5b1461097f576040517f08c379a0000000000000000000000000000000000000000000000000000000008152600401610976906131dd565b60405180910390fd5b8060000160009054906101000a900473ffffffffffffffffffffffffffffffffffffffff1673ffffffffffffffffffffffffffffffffffffffff163373ffffffffffffffffffffffffffffffffffffffff1614610a11576040517f08c379a0000000000000000000000000000000000000000000000000000000008152600401610a0890613249565b60405180910390fd5b60068160040160106101000a81548160ff02191690836006811115610a3957610a38612a6b565b5b0217905550428160030160106101000a81548167ffffffffffffffff021916908367ffffffffffffffff16021790555080600201546002600084815260200190815260200160002060008360000160009054906101000a900473ffffffffffffffffffffffffffffffffffffffff1673ffffffffffffffffffffffffffffffffffffffff1673ffffffffffffffffffffffffffffffffffffffff16815260200190815260200160002081905550817f700135b4fe8746e2d2c85a9baa43c62887740aebfeb3a439f71a083fe5d5675960405160405180910390a25050565b6000806000888152602001908152602001600020905060026006811115610b4157610b40612a6b565b5b8160040160109054906101000a900460ff166006811115610b6557610b64612a6b565b5b14610ba5576040517f08c379a0000000000000000000000000000000000000000000000000000000008152600401610b9c906132b5565b60405180910390fd5b610baf81336125cf565b610bee576040517f08c379a0000000000000000000000000000000000000000000000000000000008152600401610be590613321565b60405180910390fd5b8060040160009054906101000a900467ffffffffffffffff1667ffffffffffffffff168160030160109054906101000a900467ffffffffffffffff1667ffffffffffffffff16610c3e9190612e8f565b421015610c80576040517f08c379a0000000000000000000000000000000000000000000000000000000008152600401610c779061338d565b60405180910390fd5b60016000888152602001908152602001600020600087815260200190815260200160002060009054906101000a900460ff1615610cf2576040517f08c379a0000000000000000000000000000000000000000000000000000000008152600401610ce9906133f9565b60405180910390fd5b60008160000160009054906101000a900473ffffffffffffffffffffffffffffffffffffffff1673ffffffffffffffffffffffffffffffffffffffff163373ffffffffffffffffffffffffffffffffffffffff1614610d75578160000160009054906101000a900473ffffffffffffffffffffffffffffffffffffffff16610d9b565b8160010160009054906101000a900473ffffffffffffffffffffffffffffffffffffffff165b90506000610df87f09451ab34b0e43b826da04e0fc258616856663f87fe65925bb2493acfa78c56f30468c338d604051602001610ddd96959493929190613428565b60405160208183030381529060405280519060200120612686565b90503373ffffffffffffffffffffffffffffffffffffffff16610e1c8289896126b6565b73ffffffffffffffffffffffffffffffffffffffff1614610e72576040517f08c379a0000000000000000000000000000000000000000000000000000000008152600401610e69906134d5565b60405180910390fd5b8173ffffffffffffffffffffffffffffffffffffffff16610e948287876126b6565b73ffffffffffffffffffffffffffffffffffffffff1614610eea576040517f08c379a0000000000000000000000000000000000000000000000000000000008152600401610ee190613541565b60405180910390fd5b60018060008b815260200190815260200160002060008a815260200190815260200160002060006101000a81548160ff02191690831515021790555060038360040160106101000a81548160ff02191690836006811115610f4e57610f4d612a6b565b5b0217905550338360060160006101000a81548173ffffffffffffffffffffffffffffffffffffffff021916908373ffffffffffffffffffffffffffffffffffffffff160217905550338360050160006101000a81548173ffffffffffffffffffffffffffffffffffffffff021916908373ffffffffffffffffffffffffffffffffffffffff160217905550428360030160186101000a81548167ffffffffffffffff021916908367ffffffffffffffff160217905550428360030160106101000a81548167ffffffffffffffff021916908367ffffffffffffffff1602179055503373ffffffffffffffffffffffffffffffffffffffff16897f47fd5485c4ff5659cffc4f664af26a17be41d0c46039294375aae51833c5597660405160405180910390a3505050505050505050565b600083036110c1576040517f08c379a00000000000000000000000000000000000000000000000000000000081526004016110b8906135ad565b60405180910390fd5b600060068111156110d5576110d4612a6b565b5b60008085815260200190815260200160002060040160109054906101000a900460ff16600681111561110a57611109612a6b565b5b1461114a576040517f08c379a000000000000000000000000000000000000000000000000000000000815260040161114190613619565b60405180910390fd5b6000341161118d576040517f08c379a000000000000000000000000000000000000000000000000000000000815260040161118490613685565b60405180910390fd5b60008267ffffffffffffffff16116111da576040517f08c379a00000000000000000000000000000000000000000000000000000000081526004016111d1906136f1565b60405180910390fd5b60008167ffffffffffffffff1611611227576040517f08c379a000000000000000000000000000000000000000000000000000000000815260040161121e906135ad565b60405180910390fd5b6040518061018001604052803373ffffffffffffffffffffffffffffffffffffffff168152602001600073ffffffffffffffffffffffffffffffffffffffff1681526020013481526020014267ffffffffffffffff168152602001600067ffffffffffffffff1681526020014267ffffffffffffffff168152602001600067ffffffffffffffff1681526020018367ffffffffffffffff1681526020018267ffffffffffffffff168152602001600160068111156112e8576112e7612a6b565b5b8152602001600073ffffffffffffffffffffffffffffffffffffffff168152602001600073ffffffffffffffffffffffffffffffffffffffff1681525060008085815260200190815260200160002060008201518160000160006101000a81548173ffffffffffffffffffffffffffffffffffffffff021916908373ffffffffffffffffffffffffffffffffffffffff16021790555060208201518160010160006101000a81548173ffffffffffffffffffffffffffffffffffffffff021916908373ffffffffffffffffffffffffffffffffffffffff1602179055506040820151816002015560608201518160030160006101000a81548167ffffffffffffffff021916908367ffffffffffffffff16021790555060808201518160030160086101000a81548167ffffffffffffffff021916908367ffffffffffffffff16021790555060a08201518160030160106101000a81548167ffffffffffffffff021916908367ffffffffffffffff16021790555060c08201518160030160186101000a81548167ffffffffffffffff021916908367ffffffffffffffff16021790555060e08201518160040160006101000a81548167ffffffffffffffff021916908367ffffffffffffffff1602179055506101008201518160040160086101000a81548167ffffffffffffffff021916908367ffffffffffffffff1602179055506101208201518160040160106101000a81548160ff0219169083600681111561151657611515612a6b565b5b02179055506101408201518160050160006101000a81548173ffffffffffffffffffffffffffffffffffffffff021916908373ffffffffffffffffffffffffffffffffffffffff1602179055506101608201518160060160006101000a81548173ffffffffffffffffffffffffffffffffffffffff021916908373ffffffffffffffffffffffffffffffffffffffff1602179055509050503373ffffffffffffffffffffffffffffffffffffffff16837fd54e72c7c537da5aba0c3d338b5fcbe4ee8d6e4dce121c81c8c57aa13e5c6d64346040516115f59190612945565b60405180910390a3505050565b600080600088815260200190815260200160002090506003600681111561162c5761162b612a6b565b5b8160040160109054906101000a900460ff1660068111156116505761164f612a6b565b5b14611690576040517f08c379a00000000000000000000000000000000000000000000000000000000081526004016116879061375d565b60405180910390fd5b61169a81336125cf565b6116d9576040517f08c379a00000000000000000000000000000000000000000000000000000000081526004016116d090613321565b60405180910390fd5b8060060160009054906101000a900473ffffffffffffffffffffffffffffffffffffffff1673ffffffffffffffffffffffffffffffffffffffff163373ffffffffffffffffffffffffffffffffffffffff160361176b576040517f08c379a0000000000000000000000000000000000000000000000000000000008152600401611762906137c9565b60405180910390fd5b8060040160089054906101000a900467ffffffffffffffff1667ffffffffffffffff168160030160189054906101000a900467ffffffffffffffff1667ffffffffffffffff166117bb9190612e8f565b42106117fc576040517f08c379a00000000000000000000000000000000000000000000000000000000081526004016117f390613835565b60405180910390fd5b60016000888152602001908152602001600020600087815260200190815260200160002060009054906101000a900460ff161561186e576040517f08c379a0000000000000000000000000000000000000000000000000000000008152600401611865906133f9565b60405180910390fd5b60006118c77f22ecfef0a7cd10ea89d794eb95edbabf661b5cbe7556b8d315caff1713b34ed930468b8b6040516020016118ac959493929190613855565b60405160208183030381529060405280519060200120612686565b90508160000160009054906101000a900473ffffffffffffffffffffffffffffffffffffffff1673ffffffffffffffffffffffffffffffffffffffff1661190f8288886126b6565b73ffffffffffffffffffffffffffffffffffffffff1614611965576040517f08c379a000000000000000000000000000000000000000000000000000000000815260040161195c906138f4565b60405180910390fd5b8160010160009054906101000a900473ffffffffffffffffffffffffffffffffffffffff1673ffffffffffffffffffffffffffffffffffffffff166119ab8286866126b6565b73ffffffffffffffffffffffffffffffffffffffff1614611a01576040517f08c379a00000000000000000000000000000000000000000000000000000000081526004016119f890613960565b60405180910390fd5b60018060008a8152602001908152602001600020600089815260200190815260200160002060006101000a81548160ff02191690831515021790555060048260040160106101000a81548160ff02191690836006811115611a6557611a64612a6b565b5b0217905550428260030160106101000a81548167ffffffffffffffff021916908367ffffffffffffffff1602179055503373ffffffffffffffffffffffffffffffffffffffff16887f829b4d84d4743d197a9b0fad05abef9f517535e06d50e0b85b1e77089b8afa9d60405160405180910390a35050505050505050565b6000806000898152602001908152602001600020905060026006811115611b0d57611b0c612a6b565b5b8160040160109054906101000a900460ff166006811115611b3157611b30612a6b565b5b1480611b72575060036006811115611b4c57611b4b612a6b565b5b8160040160109054906101000a900460ff166006811115611b7057611b6f612a6b565b5b145b80611bb2575060046006811115611b8c57611b8b612a6b565b5b8160040160109054906101000a900460ff166006811115611bb057611baf612a6b565b5b145b611bf1576040517f08c379a0000000000000000000000000000000000000000000000000000000008152600401611be8906132b5565b60405180910390fd5b611bfb81336125cf565b611c3a576040517f08c379a0000000000000000000000000000000000000000000000000000000008152600401611c3190613321565b60405180910390fd5b8060000160009054906101000a900473ffffffffffffffffffffffffffffffffffffffff1673ffffffffffffffffffffffffffffffffffffffff168773ffffffffffffffffffffffffffffffffffffffff161480611ce757508060010160009054906101000a900473ffffffffffffffffffffffffffffffffffffffff1673ffffffffffffffffffffffffffffffffffffffff168773ffffffffffffffffffffffffffffffffffffffff16145b611d26576040517f08c379a0000000000000000000000000000000000000000000000000000000008152600401611d1d906139cc565b60405180910390fd5b60016000898152602001908152602001600020600087815260200190815260200160002060009054906101000a900460ff1615611d98576040517f08c379a0000000000000000000000000000000000000000000000000000000008152600401611d8f906133f9565b60405180910390fd5b6000611df37f55354d90593e3d45b96e1bebcb42acde2ebff536d6d65f9c2eb39b188228b0bd30468c8c8c604051602001611dd896959493929190613428565b60405160208183030381529060405280519060200120612686565b90508160000160009054906101000a900473ffffffffffffffffffffffffffffffffffffffff1673ffffffffffffffffffffffffffffffffffffffff16611e3b8288886126b6565b73ffffffffffffffffffffffffffffffffffffffff1614611e91576040517f08c379a0000000000000000000000000000000000000000000000000000000008152600401611e88906138f4565b60405180910390fd5b8160010160009054906101000a900473ffffffffffffffffffffffffffffffffffffffff1673ffffffffffffffffffffffffffffffffffffffff16611ed78286866126b6565b73ffffffffffffffffffffffffffffffffffffffff1614611f2d576040517f08c379a0000000000000000000000000000000000000000000000000000000008152600401611f2490613960565b60405180910390fd5b60018060008b8152602001908152602001600020600089815260200190815260200160002060006101000a81548160ff0219169083151502179055508773ffffffffffffffffffffffffffffffffffffffff163373ffffffffffffffffffffffffffffffffffffffff168a7fd9af577d55129e6451386fc55b970ada159dd9e3973646fa4d26ae72440b2abf60405160405180910390a4611fce8989612323565b505050505050505050565b6000806000838152602001908152602001600020905060008203612032576040517f08c379a000000000000000000000000000000000000000000000000000000000815260040161202990613a38565b60405180910390fd5b6001600681111561204657612045612a6b565b5b8160040160109054906101000a900460ff16600681111561206a57612069612a6b565b5b146120aa576040517f08c379a00000000000000000000000000000000000000000000000000000000081526004016120a1906131dd565b60405180910390fd5b8060000160009054906101000a900473ffffffffffffffffffffffffffffffffffffffff1673ffffffffffffffffffffffffffffffffffffffff163373ffffffffffffffffffffffffffffffffffffffff160361213c576040517f08c379a000000000000000000000000000000000000000000000000000000000815260040161213390613aa4565b60405180910390fd5b600073ffffffffffffffffffffffffffffffffffffffff168160010160009054906101000a900473ffffffffffffffffffffffffffffffffffffffff1673ffffffffffffffffffffffffffffffffffffffff16146121cf576040517f08c379a00000000000000000000000000000000000000000000000000000000081526004016121c690613b10565b60405180910390fd5b80600201543414612215576040517f08c379a000000000000000000000000000000000000000000000000000000000815260040161220c90613b7c565b60405180910390fd5b338160010160006101000a81548173ffffffffffffffffffffffffffffffffffffffff021916908373ffffffffffffffffffffffffffffffffffffffff16021790555060028160040160106101000a81548160ff021916908360068111156122805761227f612a6b565b5b0217905550428160030160086101000a81548167ffffffffffffffff021916908367ffffffffffffffff160217905550428160030160106101000a81548167ffffffffffffffff021916908367ffffffffffffffff1602179055503373ffffffffffffffffffffffffffffffffffffffff16827f50d6e5d288766a7340b6110b6738cac822c48c128a47399df2fad303041f8d5060405160405180910390a35050565b600080600084815260200190815260200160002090506005600681111561234d5761234c612a6b565b5b8160040160109054906101000a900460ff16600681111561237157612370612a6b565b5b141580156123b4575060068081111561238d5761238c612a6b565b5b8160040160109054906101000a900460ff1660068111156123b1576123b0612a6b565b5b14155b6123f3576040517f08c379a00000000000000000000000000000000000000000000000000000000081526004016123ea90613be8565b60405180910390fd5b6000600282600201546124069190613c08565b9050828260050160006101000a81548173ffffffffffffffffffffffffffffffffffffffff021916908373ffffffffffffffffffffffffffffffffffffffff16021790555060058260040160106101000a81548160ff0219169083600681111561247357612472612a6b565b5b0217905550428260030160106101000a81548167ffffffffffffffff021916908367ffffffffffffffff16021790555060008260030160186101000a81548167ffffffffffffffff021916908367ffffffffffffffff16021790555060008260060160006101000a81548173ffffffffffffffffffffffffffffffffffffffff021916908373ffffffffffffffffffffffffffffffffffffffff160217905550806002600086815260200190815260200160002060008573ffffffffffffffffffffffffffffffffffffffff1673ffffffffffffffffffffffffffffffffffffffff16815260200190815260200160002060008282546125739190612e8f565b925050819055508273ffffffffffffffffffffffffffffffffffffffff16847f0c93568a8271cba7710c6d02451f3e71e0c940d1ccc2ac79c4c45db392fc19d2836040516125c19190612945565b60405180910390a350505050565b60008260000160009054906101000a900473ffffffffffffffffffffffffffffffffffffffff1673ffffffffffffffffffffffffffffffffffffffff168273ffffffffffffffffffffffffffffffffffffffff16148061267e57508260010160009054906101000a900473ffffffffffffffffffffffffffffffffffffffff1673ffffffffffffffffffffffffffffffffffffffff168273ffffffffffffffffffffffffffffffffffffffff16145b905092915050565b6000816040516020016126999190613cc2565b604051602081830303815290604052805190602001209050919050565b6000604183839050146126fe576040517f08c379a00000000000000000000000000000000000000000000000000000000081526004016126f590613d34565b60405180910390fd5b60008060008535925060208601359150604086013560001a9050601b8160ff16101561273457601b816127319190613d61565b90505b601b8160ff1614806127495750601c8160ff16145b612788576040517f08c379a000000000000000000000000000000000000000000000000000000000815260040161277f90613de2565b60405180910390fd5b6000600188838686604051600081526020016040526040516127ad9493929190613e11565b6020604051602081039080840390855afa1580156127cf573d6000803e3d6000fd5b505050602060405103519050600073ffffffffffffffffffffffffffffffffffffffff168173ffffffffffffffffffffffffffffffffffffffff160361284a576040517f08c379a000000000000000000000000000000000000000000000000000000000815260040161284190613ea2565b60405180910390fd5b809450505050509392505050565b600080fd5b600080fd5b6000819050919050565b61287581612862565b811461288057600080fd5b50565b6000813590506128928161286c565b92915050565b600073ffffffffffffffffffffffffffffffffffffffff82169050919050565b60006128c382612898565b9050919050565b6128d3816128b8565b81146128de57600080fd5b50565b6000813590506128f0816128ca565b92915050565b6000806040838503121561290d5761290c612858565b5b600061291b85828601612883565b925050602061292c858286016128e1565b9150509250929050565b61293f81612862565b82525050565b600060208201905061295a6000830184612936565b92915050565b6000819050919050565b61297381612960565b811461297e57600080fd5b50565b6000813590506129908161296a565b92915050565b600080604083850312156129ad576129ac612858565b5b60006129bb85828601612883565b92505060206129cc85828601612981565b9150509250929050565b60008115159050919050565b6129eb816129d6565b82525050565b6000602082019050612a0660008301846129e2565b92915050565b600060208284031215612a2257612a21612858565b5b6000612a3084828501612883565b91505092915050565b612a42816128b8565b82525050565b600067ffffffffffffffff82169050919050565b612a6581612a48565b82525050565b7f4e487b7100000000000000000000000000000000000000000000000000000000600052602160045260246000fd5b60078110612aab57612aaa612a6b565b5b50565b6000819050612abc82612a9a565b919050565b6000612acc82612aae565b9050919050565b612adc81612ac1565b82525050565b600061018082019050612af8600083018f612a39565b612b05602083018e612a39565b612b12604083018d612936565b612b1f606083018c612a5c565b612b2c608083018b612a5c565b612b3960a083018a612a5c565b612b4660c0830189612a5c565b612b5360e0830188612a5c565b612b61610100830187612a5c565b612b6f610120830186612ad3565b612b7d610140830185612a39565b612b8b610160830184612a39565b9d9c50505050505050505050505050565b600080fd5b600080fd5b600080fd5b60008083601f840112612bc157612bc0612b9c565b5b8235905067ffffffffffffffff811115612bde57612bdd612ba1565b5b602083019150836001820283011115612bfa57612bf9612ba6565b5b9250929050565b60008060008060008060808789031215612c1e57612c1d612858565b5b6000612c2c89828a01612883565b9650506020612c3d89828a01612981565b955050604087013567ffffffffffffffff811115612c5e57612c5d61285d565b5b612c6a89828a01612bab565b9450945050606087013567ffffffffffffffff811115612c8d57612c8c61285d565b5b612c9989828a01612bab565b92509250509295509295509295565b612cb181612a48565b8114612cbc57600080fd5b50565b600081359050612cce81612ca8565b92915050565b600080600060608486031215612ced57612cec612858565b5b6000612cfb86828701612883565b9350506020612d0c86828701612cbf565b9250506040612d1d86828701612cbf565b9150509250925092565b600080600080600080600060a0888a031215612d4657612d45612858565b5b6000612d548a828b01612883565b9750506020612d658a828b016128e1565b9650506040612d768a828b01612981565b955050606088013567ffffffffffffffff811115612d9757612d9661285d565b5b612da38a828b01612bab565b9450945050608088013567ffffffffffffffff811115612dc657612dc561285d565b5b612dd28a828b01612bab565b925092505092959891949750929550565b600082825260208201905092915050565b7f4e6f20636c61696d000000000000000000000000000000000000000000000000600082015250565b6000612e2a600883612de3565b9150612e3582612df4565b602082019050919050565b60006020820190508181036000830152612e5981612e1d565b9050919050565b7f4e487b7100000000000000000000000000000000000000000000000000000000600052601160045260246000fd5b6000612e9a82612862565b9150612ea583612862565b9250828201905080821115612ebd57612ebc612e60565b5b92915050565b7f446973707574652077696e646f77206163746976650000000000000000000000600082015250565b6000612ef9601583612de3565b9150612f0482612ec3565b602082019050919050565b60006020820190508181036000830152612f2881612eec565b9050919050565b7f4e6f20636c61696d616e74000000000000000000000000000000000000000000600082015250565b6000612f65600b83612de3565b9150612f7082612f2f565b602082019050919050565b60006020820190508181036000830152612f9481612f58565b9050919050565b7f5265656e7472616e637900000000000000000000000000000000000000000000600082015250565b6000612fd1600a83612de3565b9150612fdc82612f9b565b602082019050919050565b6000602082019050818103600083015261300081612fc4565b9050919050565b7f4e6f7420636c61696d61626c6500000000000000000000000000000000000000600082015250565b600061303d600d83612de3565b915061304882613007565b602082019050919050565b6000602082019050818103600083015261306c81613030565b9050919050565b7f4e6f7468696e6720746f20636c61696d00000000000000000000000000000000600082015250565b60006130a9601083612de3565b91506130b482613073565b602082019050919050565b600060208201905081810360008301526130d88161309c565b9050919050565b600081905092915050565b50565b60006130fa6000836130df565b9150613105826130ea565b600082019050919050565b600061311b826130ed565b9150819050919050565b7f5472616e73666572206661696c65640000000000000000000000000000000000600082015250565b600061315b600f83612de3565b915061316682613125565b602082019050919050565b6000602082019050818103600083015261318a8161314e565b9050919050565b7f4e6f74206f70656e000000000000000000000000000000000000000000000000600082015250565b60006131c7600883612de3565b91506131d282613191565b602082019050919050565b600060208201905081810360008301526131f6816131ba565b9050919050565b7f4f6e6c792063726561746f720000000000000000000000000000000000000000600082015250565b6000613233600c83612de3565b915061323e826131fd565b602082019050919050565b6000602082019050818103600083015261326281613226565b9050919050565b7f4261642073746174650000000000000000000000000000000000000000000000600082015250565b600061329f600983612de3565b91506132aa82613269565b602082019050919050565b600060208201905081810360008301526132ce81613292565b9050919050565b7f4e6f74207061727469636970616e740000000000000000000000000000000000600082015250565b600061330b600f83612de3565b9150613316826132d5565b602082019050919050565b6000602082019050818103600083015261333a816132fe565b9050919050565b7f4d6f76652074696d656f7574206e6f7420726561636865640000000000000000600082015250565b6000613377601883612de3565b915061338282613341565b602082019050919050565b600060208201905081810360008301526133a68161336a565b9050919050565b7f436865636b706f696e7420757365640000000000000000000000000000000000600082015250565b60006133e3600f83612de3565b91506133ee826133ad565b602082019050919050565b60006020820190508181036000830152613412816133d6565b9050919050565b61342281612960565b82525050565b600060c08201905061343d6000830189613419565b61344a6020830188612a39565b6134576040830187612936565b6134646060830186612936565b6134716080830185612a39565b61347e60a0830184613419565b979650505050505050565b7f42616420636c61696d616e742073696700000000000000000000000000000000600082015250565b60006134bf601083612de3565b91506134ca82613489565b602082019050919050565b600060208201905081810360008301526134ee816134b2565b9050919050565b7f42616420636f756e746572706172747920736967000000000000000000000000600082015250565b600061352b601483612de3565b9150613536826134f5565b602082019050919050565b6000602082019050818103600083015261355a8161351e565b9050919050565b7f496e76616c696400000000000000000000000000000000000000000000000000600082015250565b6000613597600783612de3565b91506135a282613561565b602082019050919050565b600060208201905081810360008301526135c68161358a565b9050919050565b7f4d617463682065786973747320616c7265616479000000000000000000000000600082015250565b6000613603601483612de3565b915061360e826135cd565b602082019050919050565b60006020820190508181036000830152613632816135f6565b9050919050565b7f50757420736f6d65207374616b65000000000000000000000000000000000000600082015250565b600061366f600e83612de3565b915061367a82613639565b602082019050919050565b6000602082019050818103600083015261369e81613662565b9050919050565b7f496e76616c6964206d6f766554696d656f757400000000000000000000000000600082015250565b60006136db601383612de3565b91506136e6826136a5565b602082019050919050565b6000602082019050818103600083015261370a816136ce565b9050919050565b7f4e6f2061637469766520636c61696d0000000000000000000000000000000000600082015250565b6000613747600f83612de3565b915061375282613711565b602082019050919050565b600060208201905081810360008301526137768161373a565b9050919050565b7f436c61696d616e742063616e6e6f74206368616c6c656e676500000000000000600082015250565b60006137b3601983612de3565b91506137be8261377d565b602082019050919050565b600060208201905081810360008301526137e2816137a6565b9050919050565b7f446973707574652077696e646f7720636c6f7365640000000000000000000000600082015250565b600061381f601583612de3565b915061382a826137e9565b602082019050919050565b6000602082019050818103600083015261384e81613812565b9050919050565b600060a08201905061386a6000830188613419565b6138776020830187612a39565b6138846040830186612936565b6138916060830185612936565b61389e6080830184613419565b9695505050505050565b7f4261642063726561746f72207369670000000000000000000000000000000000600082015250565b60006138de600f83612de3565b91506138e9826138a8565b602082019050919050565b6000602082019050818103600083015261390d816138d1565b9050919050565b7f426164206f70706f6e656e742073696700000000000000000000000000000000600082015250565b600061394a601083612de3565b915061395582613914565b602082019050919050565b600060208201905081810360008301526139798161393d565b9050919050565b7f4261642077696e6e657200000000000000000000000000000000000000000000600082015250565b60006139b6600a83612de3565b91506139c182613980565b602082019050919050565b600060208201905081810360008301526139e5816139a9565b9050919050565b7f696e76616c6964206d6174636869640000000000000000000000000000000000600082015250565b6000613a22600f83612de3565b9150613a2d826139ec565b602082019050919050565b60006020820190508181036000830152613a5181613a15565b9050919050565b7f63726561746f722063616e74206a6f696e000000000000000000000000000000600082015250565b6000613a8e601183612de3565b9150613a9982613a58565b602082019050919050565b60006020820190508181036000830152613abd81613a81565b9050919050565b7f616c7265616479206a6f696e6564200000000000000000000000000000000000600082015250565b6000613afa600f83612de3565b9150613b0582613ac4565b602082019050919050565b60006020820190508181036000830152613b2981613aed565b9050919050565b7f7374616b65206d69736d61746368000000000000000000000000000000000000600082015250565b6000613b66600e83612de3565b9150613b7182613b30565b602082019050919050565b60006020820190508181036000830152613b9581613b59565b9050919050565b7f46696e616c697a65640000000000000000000000000000000000000000000000600082015250565b6000613bd2600983612de3565b9150613bdd82613b9c565b602082019050919050565b60006020820190508181036000830152613c0181613bc5565b9050919050565b6000613c1382612862565b9150613c1e83612862565b9250828202613c2c81612862565b91508282048414831517613c4357613c42612e60565b5b5092915050565b600081905092915050565b7f19457468657265756d205369676e6564204d6573736167653a0a333200000000600082015250565b6000613c8b601c83613c4a565b9150613c9682613c55565b601c82019050919050565b6000819050919050565b613cbc613cb782612960565b613ca1565b82525050565b6000613ccd82613c7e565b9150613cd98284613cab565b60208201915081905092915050565b7f42616420736967206c656e677468000000000000000000000000000000000000600082015250565b6000613d1e600e83612de3565b9150613d2982613ce8565b602082019050919050565b60006020820190508181036000830152613d4d81613d11565b9050919050565b600060ff82169050919050565b6000613d6c82613d54565b9150613d7783613d54565b9250828201905060ff811115613d9057613d8f612e60565b5b92915050565b7f4261642076000000000000000000000000000000000000000000000000000000600082015250565b6000613dcc600583612de3565b9150613dd782613d96565b602082019050919050565b60006020820190508181036000830152613dfb81613dbf565b9050919050565b613e0b81613d54565b82525050565b6000608082019050613e266000830187613419565b613e336020830186613e02565b613e406040830185613419565b613e4d6060830184613419565b95945050505050565b7f4261642073696700000000000000000000000000000000000000000000000000600082015250565b6000613e8c600783612de3565b9150613e9782613e56565b602082019050919050565b60006020820190508181036000830152613ebb81613e7f565b905091905056fea2646970667358221220029accf312d4325f6866472fa6d05acfb82df3a10d27d925ee9e1fafcee5476d64736f6c63430008180033",
  "linkReferences": {},
  "deployedLinkReferences": {}
}